:020000040000FA
:1000000020001FE800000139000001590000015BD9
:1000100000000000000000000000000000000000E0
:100020000000000000000000000000000000015D72
:1000300000000000000000000000015F00000161FE
:1000400000000000000000000000000000000000B0
:1000500000000000000000000000000000000000A0
:100060000000193D000019B90000196900000000E6
:1000700000005D3100005C3700000000000000005F
:1000800000F002F800F024F80CA030C8083824185A
:100090002D18A246671EAB4654465D46AC4201D1C0
:1000A00000F016F87E460F3E0FCCB64601263342CE
:1000B00000D0FB1AA246AB46334318470000AC28D9
:1000C0000000AC381FB5C046C0461FBD10B510BDFE
:1000D00009F0AEFD1146FFF7F5FF00F061F809F0F9
:1000E000C6FD03B4FFF7F2FF03BC09F0F9FD000001
:1000F000401EFDD270470000401EFDD27047000038
:1001000070B505460C46164602E00FCC0FC5103EF2
:10011000102EFAD2082E02D303CC03C5083E042EBB
:1001200007D301CC01C5361F03E021782970641C78
:100130006D1C761EF9D270BDEFF314801349084090
:1001400080F3148801F0BFFB01F0ADFB05F018FE51
:1001500001F01AFA0E480047FEE7FEE7FEE7FEE769
:10016000FEE7FEE7FEE7FEE7FEE7FEE7FEE7FEE767
:10017000FEE7FEE7FEE7FEE7FEE7FEE7FEE7FEE757
:1001800004480549034A054B70470000FFFFFFFE86
:100190000000008120000BE820001FE820000BE891
:1001A00005F0AEF801F006FA01F05DFB01203D49D3
:1001B000886004203C49087000BF3C480078002853
:1001C00003D13B4800780028F7D06AE0394800782E
:1001D000002822D136480078012807D1002108469E
:1001E00001F071FD01203349087016E032480078B3
:1001F000012812D131480078002804D100210120C3
:1002000001F061FD03E00021084601F05CFD2C488F
:100210000078012801D12749087027480078002874
:1002200001D1284800782848007801280FD12748B4
:100230000078FF2805D101F0C3FA002001F05CFA34
:1002400005E002F023FE01F0C4F802F019FE02F00E
:100250001DFE05F0F2F9044602F012FE112C12D137
:100260001B48007800281CD1112C1AD1194800789D
:10027000002816D102F00AFE01F01CF902F000FE7F
:1002800005F07FFA0DE0152C08D102F0FFFD01F01A
:100290004FF902F0F5FD05F0BDFA02E0612C00D047
:1002A00000BF93E750007080200000962000066594
:1002B000200001BC2000066720000666200009D04F
:1002C000200009D1200001BD20000002200001BE55
:1002D0002000006C2000007330B5FFB094B0FE49E0
:1002E00008460DC8C9686BAC0DC46E91FA4910314F
:1002F00003C96A9169902022F749183161A8FFF774
:10030000FFFE2022F449383159A8FFF7F9FE2022D8
:10031000F149583151A8FFF7F3FEEF4B78335A6893
:1003200019689868DB6850934E924D914F90202247
:10033000E949883145A8FFF7E3FE2022E649A831C4
:100340003DA8FFF7DDFE2022E349C83135A8FFF7BD
:10035000D7FEE14BE8330FCB31AC0FC42022DE498E
:10036000F83129A8FFF7CCFEDC4B0FCB25AC0FC42E
:10037000DA4B10330FCB21AC0FC4D84B20335A6863
:1003800019689868DB6820931E921D911F902022A7
:10039000D249303115A8FFF7B3FE2022CF495031A2
:1003A0000DA8FFF7ADFECD4B70331A681B1D0BCBAC
:1003B0000AAC0BC40992C94B80331A681B1D0BCBC6
:1003C00006AC0BC40592C54B90330FCB01AC0FC4E8
:1003D0008DAD61A82860C2482861202068606BA8A4
:1003E000A86000202875284604F0B4F9C4B2002C97
:1003F00005D0BC48BC4908807FB014B030BD202275
:1004000059A9286908F0FEFEC4B2002C04D0B548F2
:10041000401CB5490880EFE761A88790B0488B90F1
:100420002020889069A88A906BA88990202088A9AC
:10043000087487A803F08AFBC4B2002C04D0A94832
:10044000801CA9490880D7E7202251A98B9808F081
:10045000D9FEC4B2002C04D0A248C01CA249088016
:10046000CAE751A887909E488B902020889069A861
:100470008A906BA88990602088A9087487A803F0E7
:1004800065FB202261A98B9808F0BCFEC4B2002C49
:1004900004D09448001D94490880ADE745A8819098
:1004A0008F488590202082904DA88390002080A9BD
:1004B000087681A802F032FEC4B2002C04D089482C
:1004C000401D8949088097E720223DA9859808F0BA
:1004D00099FEC4B2002C04D08248801D8249088055
:1004E0008AE729A87B907E487F9020207C9035A8C1
:1004F0007D9031A87E90842080A908707BA802F0AE
:1005000007FEC4B2002C04D07648C01D764908808E
:1005100072E7102225A97F9808F074FEC4B2002C5F
:1005200004D0704808307049088065E715A87590B8
:100530006B4879902020769021A877901DA878901C
:10054000202078A9087275A802F00AFEC4B2002C17
:1005500004D064480930644908804DE720220DA981
:10056000799808F04FFEC4B2002C04D05D480A30E0
:100570005D49088040E705A86F90594873901020A6
:10058000709009A87190002070A908746FA802F0FB
:10059000C2FDC4B2002C04D052480B30524908802E
:1005A0002AE7102201A9739808F02CFEC4B2002C8F
:1005B00004D04C480C304C4908801DE7092000034A
:1005C0004949088000BF17E710B5FFB089B0FF2286
:1005D0000932464904A8FFF793FD45A30FCB6C46AB
:1005E0000FC4474800680121084345490860FF22BD
:1005F000093204A946A8FFF783FD022346AAFF217A
:100600000631404801F078FA04463F48844205D05C
:100610003448354908807FB009B010BD022304AAD0
:10062000FF210631394801F067FA0446E04380B201
:100630003749884204D02B48401C2B490880EAE700
:1006400001236A460D21314801F056FA0446E04381
:1006500080B23049884204D02248801C2249088058
:10066000D9E7092000032049088000BFD3E730B54F
:10067000294B9D441948A03001682848684401600E
:1006800080221649A4318038FFF73AFD80222449A0
:10069000FFA88430FFF734FDFF220132204980316A
:1006A000E0A8FFF72DFDFF2201321E49A0A8FFF7A9
:1006B00027FDFF2201321C4960A8FFF721FDFF2220
:1006C00001321A4920A8FFF71BFD8022184968460D
:1006D000FFF716FD174C2FE000009E9C00009FB412
:1006E000200002C400006F012000000C0000A79849
:1006F0003132333435363738391122334400000073
:10070000500072000000636300008AA00000FFFF39
:100710000000215200003A2FFFFFF1AC00000580DD
:100720000000A0D80000A2580000A3580000A45860
:100730000000A558000005846C44F9486844206016
:10074000FF38013860608038A0608038E060803811
:100750002061803860618038A061FF380138E06135
:10076000F04868442062FF3801386062FF38013881
:10077000A06238380168EC4868440165802221464F
:100780008439FF383138FFF7BBFC8022FFA9843160
:10079000E6486844FFF7B4FC0021E1624021216390
:1007A000204602F0C3FBC5B2002D07D06F20000227
:1007B000DF490880DA4B1B1D9D4430BDFF2201320A
:1007C000A0A9DC48684408F01DFD002803D0DA48E1
:1007D000D7490880EEE7FF220132E0A9D7486844F4
:1007E00008F010FD002804D0D348401CD0490880F0
:1007F000E0E7FF22013260A9D1486844FFF780FC9E
:1008000040202063204602F0B5FBC5B2002D04D085
:10081000C948801CC6490880CCE7FF22013220A9C4
:10082000C848684408F0EEFC002804D0C248C01C48
:10083000BF490880BEE7FF22013220A9C0486844B2
:10084000FFF75EFC40202063204602F081FBC5B22A
:10085000002D04D0B848001DB5490880AAE7FF2242
:10086000013260A9B748684408F0CCFC002804D0E5
:10087000B148401DAE4908809CE7B3486844016810
:10088000A948684401650021E162202121632046D6
:1008900002F03BFB80226946A9486844FFF730FC20
:1008A00020212163204602F053FBC5B2002D04D065
:1008B000A148801D9E4908807CE78022A1496944A7
:1008C000C81DF930FFF71CFC20202063204602F0F1
:1008D00051FBC5B2002D04D09748C01D9449088033
:1008E00068E7802269469748684408F08BFC002836
:1008F00004D0914808308E4908805BE70920000346
:100900008B49088000BF55E770B5904B9D4420226D
:100910008FA1D3A8FFF7F4FB402295A1C3A8FFF74E
:10092000EFFB2022A2A1BBA8FFF7EAFB8022A84987
:100930009BA8FFF7E5FB2022A6A193A8FFF7E0FB09
:100940004022ACA183A8FFF7DBFBBAA0016882912B
:100950002022B9A17AA8FFF7D3FB2422BEA171A857
:10096000FFF7CEFB2022C54969A8FFF7C9FB40224B
:10097000C249203159A8FFF7C3FB2022BF4960318B
:1009800051A8FFF7BDFB4022BC49803141A8FFF7C9
:10099000B7FB2422BAA138A8FFF7B2FB2022B7493F
:1009A000C03130A8FFF7ACFB4022B449E03120A8A9
:1009B000FFF7A6FB2022BB4918A8FFF7A1FB4022A6
:1009C000B849203108A8FFF79BFB2022B6A1684652
:1009D000FFF796FBE6AE3046FF3099303060FFA857
:1009E000343070602038B060FCA8F060ECA8306152
:1009F000012070612022BBA93046FF309930FFF7FB
:100A00007FFB2022D3A9FCA8FFF77AFB4022C3A9D1
:100A1000ECA8FFF775FB304602F0C4FAC5B2002D12
:100A200007D06F2000024249088073231B019D44B8
:100A300070BD2021304602F0F1FAC5B2002D03D07E
:100A40003D483B490880F0E78022FFA93431C81DAA
:100A5000F930FFF755FB8021304602F0F3FAC5B2BA
:100A6000002D04D03448401C31490880DDE72022A5
:100A7000BBA9FFA8343008F0C5FB002804D02E48DD
:100A8000801C2B490880D0E7202293A98E48684417
:100A9000FFF736FB2022D3A9FCA8FFF731FB402249
:100AA000C3A9ECA8FFF72CFB304602F093FAC5B2BD
:100AB000002D04D02048C01C1D490880B5E73046F1
:100AC00002F09AFAC5B2002D04D01B48001D184947
:100AD0000880AAE7402283A9FFA83430FFF710FB63
:100AE000304602F089FAC5B2002D04D01248401DEC
:100AF0000F49088099E7754868448299016301238A
:100B0000FFAA3432ECA982A802F05EFAC5B2002D29
:100B100004D00948801D0649088086E7D8E0000017
:100B200000000E50000007B800000E0000000C503E
:100B30002000000C00000D5000006F01000009D0E3
:100B4000000006B8000005B800000580FFFFF8D0DF
:100B50009E1F3B2512384509767D7A5A5D03701F2A
:100B600026A6428B66BB64434DC8074D2D1239B390
:100B7000A88BCDF98122608F18B00EB03A410CA13C
:100B8000CD6D7E4124832F4BC663861C45FE5D31AF
:100B900090BEE3759C25A299EF397C87F69A421C9A
:100BA000E0D9325F36FC0F4FA0027B3012F8ABA0C9
:100BB0009604FCBB3C6EE8B938D7D4C2F846BCB149
:100BC0007C0AC0F30AA1798E23D88D62B53481AF37
:100BD0000000A8A0AF8134B5628DD8238E79A10A18
:100BE000F3C00A7CB1BC46F8C2D4D738B9E86E3C31
:100BF000BBFC0496B7B27C1B46D6200F03EF84D60D
:100C0000236913AA5D77659A04546CC5BF716C158E
:100C100046B9F32A081B5E292927A8FF538CC11B5C
:100C2000EDAD0CE03DA30C55BA20F8D336B6D47424
:100C3000DBC8490503363693F82AFEF5BC7700E198
:100C4000E658FDE90A59F131A81B6819248D637E25
:100C50008B79ED918CCC7E6F2019AD86DF1BD67F12
:100C600011667B904259CD8DFB81EBA6FC05C570CA
:100C7000394D323514F34F7BDC0000000000A5D85D
:100C8000201946CAF605AA83851869DDBB71CBFD1C
:100C900005FC27FF2CDBBF074716E38C008545E3E7
:100CA000090000000000A6F8C97A20DA6118BD0D1D
:100CB00027DD56EB0390E8FEB7A4A94D9F5A2D04FB
:100CC0001992ED583269A0080000053000000500B7
:100CD00020227AA9FFA8343008F094FA002803D023
:100CE000F548F6490880A0E640229BA9F4486844EC
:100CF000FFF706FA2022ABA9F2486844FFF700FA92
:100D00002022B3A9F0486844FFF7FAF98021304661
:100D100002F098F9C5B2002D04D0E748401CE7491D
:100D2000088082E62022BBA9FFA8343008F06AFAC6
:100D3000002804D0E048801CE049088075E6DBAC60
:100D400071A8206038A8606059A8A06069A8E06018
:100D500020A8206151A8606141A8A06108A8E061B5
:100D60002020206201206062A062FFA93431204669
:100D700002F0B4F9C5B2002D04D0CF48C01CCF4951
:100D8000088052E620226946FFA8343008F03AFA7B
:100D9000002804D0C848001DC849088045E6DBACDF
:100DA00038A8206071A8606020A8A06030A8E0602A
:100DB00059A8206118A8606108A8A06141A8E06155
:100DC00020202062002060620120A062FFA934314F
:100DD000204602F083F9C5B2002D04D0B648401D6C
:100DE000B649088021E620226946FFA8343008F081
:100DF00009FA002804D0B048801DB049088014E6E4
:100E000009200003AD49088000BF0EE670B5FFB0B1
:100E10008FB03C22ADA165A8FFF772F91422BAA1E8
:100E200060A8FFF76DF98422BC493FA8FFF768F975
:100E30004022BBA12FA8FFF763F91422C8A12AA85A
:100E4000FFF75EF92022CBA122A8FFF759F964220F
:100E5000B249843109A8FFF753F92022CDA101A896
:100E6000FFF74EF987A801F007FC3A2265A987A889
:100E700001F02FFE142260A987A808F0C3F9C6B2BA
:100E8000002E06D08C48C01F8C4908807FB00FB060
:100E900070BD842487A801F0EFFB3FAD06E040223F
:100EA000294687A801F015FE403C4035402CF6D27B
:100EB0002246294687A801F00CFE14222AA987A8F9
:100EC00008F0A0F9C6B2002E04D07B48801F7B49F1
:100ED0000880DBE72FAD87A801F0CEFB4022294632
:100EE00087A801F0F6FD00222946403187A801F0CD
:100EF000F0FD84247DA801F0FEFD3FAD06E0402218
:100F000029467DA801F0A8FF403C4035402CF6D290
:100F1000224629467DA801F09FFF202222A97DA814
:100F200008F070F9C6B2002E04D06348401F634930
:100F30000880ABE72FAD7DA801F0DDFD40222946FA
:100F40007DA801F089FF0022294640317DA801F0EB
:100F500083FF612474A802F0D5F809AD06E04022B1
:100F6000294674A802F0D1F8403C4035402CF6D216
:100F70002246294674A802F0C8F8202201A974A8C4
:100F800008F040F9C6B2002E04D04B48001F4B4970
:100F900008807BE7092000034849088000BF75E707
:100FA00070B5844805790146487800F0D3FB814844
:100FB0008078012806D002281DD0032820D00428DC
:100FC00026D121E001F0D6FAC4B2012C04D16F2061
:100FD00000023A49088070BD01F0F1FAC4B2012C58
:100FE00004D13548C01F35490880F4E7082171480D
:100FF00001F0FAF911E008216E4801F06CFA0CE0FA
:101000006C4800F057FE08E06A4800F0D6FD04E0A6
:101010006F20000229490880DDE700BF002D02D1C2
:10102000FF20013000E028466349086009200003E2
:101030002249088000BFCEE7F0B5FFB082B05D491D
:10104000487800F087FB00BF5A480079401D5B4993
:1010500009888842F8D157480079042806DA1648EA
:10106000C01F164908807FB002B0F0BD514800791A
:10107000021F5049093101A808F0EFF84D484079A6
:1010800000064C498979090408434A49C97909028B
:1010900008434849097A08430446640A640219204F
:1010A0000003844202D38000844204D30248C01F5C
:1010B00002490880D7E783E000006F082000000C99
:1010C0000000053000000570000005900A0FEAAA34
:1010D00053665D4C8CB38566DF4EE61F273BB63406
:1010E0008342415808173C55954BFE8EC5CBBAF646
:1010F00076B802ABD89445884C697F8081521C0B2E
:101100004A88300E25460000348C74D1EEB3334942
:101110009B8FE2C2D05DBFD09BA36D2A0000A920A7
:101120000A0FEAAA53665D4C8CB38566DF4EE61F54
:10113000273BB6348342415808173C55954BFE8EE9
:10114000C5CBBAF676B802ABD89445884C697F8097
:1011500081521C0B4A88300E25460000000000001A
:10116000FB74DDEBDB40345C10C0098B803D253522
:10117000F1B943D63921E95ECAE233B32CB848FC51
:1011800045F389A784F1787BF2412E9D4925DB2325
:101190004A4ADEA17CF6134975B9D677472B984C9D
:1011A000BE4AD260FC8A37AD3E964EA6E202C5B971
:1011B000E2972644200001BE200000082000000025
:1011C00001AF96480079061F02E0FF20B855761C53
:1011D000012040028642F8D300BF204601F0C6F845
:1011E000054601A9204601F0DAF80543681CF4D051
:1011F00001225202214601A808F004F80546002DFC
:1012000003D08748874908802DE701F099FF0546FC
:10121000681C01D101F09AFF01A94720800301F069
:1012200092FF012252024721890301A807F0EAFF39
:101230000546002D04D07A48401C7A49088012E700
:10124000092000037749088000BF0CE700B5FFB014
:1012500082B001225202744901A8FEF751FF73487F
:10126000019001A9704801F09AF8092000036D4926
:1012700008807FB002B000BD10B590B06C4B0FCBB2
:101280000CAC0FC418226A49103106A8FEF738FFCB
:101290001822674928316846FEF732FF0020654969
:1012A00008700CA804F0C6FDC4B2012004F068FE6A
:1012B0002043C4B2002C05D05948401E594908802B
:1012C00010B010BD022106A804F036FFC4B2002CF5
:1012D00003D0534853490880F2E70221684604F0DE
:1012E000E6FEC4B2002C04D04D48401C4D49088095
:1012F000E6E7182206A9684607F084FF002804D014
:101300004748401C47490880DAE70920000345495F
:10131000088000BFD4E710B54049487800F01AFAB9
:1013200000BF3E480079401D434909888842F8D1F2
:1013300042480068042108420ED04048406909072D
:1013400008433E4948613D48803040680121090515
:1013500008433A4980314860092000033149088038
:1013600010BD10B561202D4908701220487088709A
:101370004F20C87010200871002403E0601D274A28
:101380001454641C102CF9D315202D490860C0207A
:1013900000F0E0F9092000032249088010BD10B5D3
:1013A0001E49487800F0D6F900BF1C480079401D5E
:1013B000214909888842F8D118480079022803D1C8
:1013C00020481849088003E00920000315490880D7
:1013D00010BD10B56D200002124908800020184988
:1013E000086000240EE0E0001749085C0B494978CA
:1013F000884205D1E100144A89184868804703E013
:10140000601CC4B20C2CEED300BF002000F074F9B5
:1014100000F0A9F9002000F00DF910BD200001BE78
:1014200000006F022000000C1FFF8000B639A527C6
:101430000000A75820000097200000005000718095
:10144000200000080000611500009E3C46484079DD
:10145000401D46490880092000034549088070471F
:101460006121414A517012219170D1704F21117147
:1014700010215171002003E0811D3B4B5854401C4A
:101480001028F9D31521394A118009210903384A56
:101490001180704734484079022803D135483449D7
:1014A000088003E0092000033149088000202F490B
:1014B0000880704700B56D2000022D4908802E4835
:1014C0000078002802D12849087002E0012026494E
:1014D000087025488078012804D0A42808D0C028A6
:1014E00009D102E0FFF7B2FF0DE0FFF7B9FF0AE014
:1014F000FFF7D0FF07E000201C4908806D200002A4
:101500001B49088000BF00BF194800880112164A15
:1015100016480088401C115415484178134800882B
:10152000801C115411480088801C1049088000BD9F
:1015300009200003114908801148007911490880E9
:101540000E48008800120E490E4A128888540B4833
:1015500041780B4A0B480088401C11540948008808
:10156000801C084908807047200004582000006251
:101570002000000E00006115200000752000001002
:1015800020000560200000647D48006801214904B6
:1015900008437B4908607B487B49486000207B49C1
:1015A00008707B4908707B490870FF2001307A4938
:1015B0000860704700207949087079490880012047
:1015C0007849087070470120002107E0764A125CD4
:1015D0006D4B1A60744A125C5140401C724A521E94
:1015E00012788242F2D8684A116070470CE066496E
:1015F000896840221143644A916000BF624989684A
:1016000040221142FAD1401E0028F0D1704700BF9D
:101610005D48806820210842FAD100BF5A4880689E
:1016200008210842FAD148015749486180005A49C7
:10163000086070470146544A926810239A43524BFF
:101640009A601A46126901231A434F4B1A6100BF70
:101650004D4A1269D207D20FFAD1524B1A70534A2F
:101660001180534A1268002A0DD1524A1288121270
:10167000454B1A604F4A12881A604C4A1288921CD5
:101680004A4B1A8012E000200CE04B4A474B1B8863
:10169000D25C3D4B1A60454A1288521C434B1A805B
:1016A000421C90B2424A12689042EED3434A1268FA
:1016B00001235B021A43414B1A6001225202364B4E
:1016C0001A60704711E036480088FF2105318842D2
:1016D00000DB70472C4800683749314A128888542B
:1016E0002F480088401C2E49088027484069022165
:1016F0000842E8D000BFECE7294908800021274ACA
:101700001170244A1170704700BF1F498968202258
:101710001142FAD100BF1C49896808221142FAD14E
:101720001949096901221143174A116100BF16497D
:101730000969C907C90FFAD1134A916011460860B7
:1017400000BF1149896810221142FAD000210E4AC7
:101750009160704700B503460420FFF747FF184625
:10176000FFF7D2FF00BD00200749C86100BF06484F
:10177000806820210842FAD1002003498860704720
:101780005000720000000E53400010002000066759
:10179000200001BC200001BDE000E10020000002AB
:1017A000200000002000000600009E2D2000000404
:1017B000200000082000000C200001BEE000E280B4
:1017C00070B5FF20484908700125042407E0464809
:1017D00040782041C007C00F00D06D1C641C072C4E
:1017E000F5D300BF41480188A81C8142FAD10026E8
:1017F000002403E03C48005D4640641CA81C844271
:10180000F8D3002E2DD10420FFF7F0FE36484078A3
:101810009F21084010281BD133488078962817D183
:101820001020314948707920C8700878FFF76CFFA4
:101830002D494878FFF768FF2B498878FFF764FF48
:101840002949C878FFF760FF96202949886170BD53
:10185000FF20FFF759FF0020FFF756FFFF20FFF79B
:1018600053FF00BFF3E7002022490880F0202249FF
:101870000880002021490870214908600F20214973
:10188000087021482149088018202149087000204B
:101890002049087020490870012020490870002064
:1018A0001F490870704704201E4908701E480078C0
:1018B00048701D48407888701B488078C8701A4866
:1018C000C078087170470120184908700020184935
:1018D00008701848006818494861164840688861CF
:1018E00014488068C8617047200001BE20000000D5
:1018F0004000100020000062200000602000006C0A
:10190000200000682000006E00000303200000702B
:101910002000006D20000072200000732000007481
:1019200020000075200006901FFFFE2020000454B8
:1019300020000455000190005000728010B5012075
:1019400037490861112037498861FFF760FE0020A0
:10195000FFF7D2FE0120400233490860FFF733FE53
:1019600001203249087010BD10B52E48806804214E
:1019700088432C49886001202D490870FFF7A2FE9A
:101980002C480078012800D110BD2B480078FF2892
:1019900007D12A48008802280CDB0120254908705D
:1019A00008E026480088052804D101202149087054
:1019B0001C49C86100BFE7E71A48806810218843C6
:1019C00018498860084680680221084204D01548FA
:1019D000806888431349886019480188194800685D
:1019E000801C814206D101201749087040020E492F
:1019F0000860704700BF0B48006902210842FAD115
:101A000012480088001207490860104800880860E2
:101A10000B480088801C0A49088000BFE9E70000E5
:101A20005000718040001000E000E180200001BC07
:101A3000200001BD20000002200001BE20000000A7
:101A40002000000420000008200000062000000CF8
:101A50000246002901D10220704700BFFE4880687D
:101A600028231842FAD1FC48406880088000FA4BCD
:101A700058601846406801231843F74B58601FE030
:101A80001078F54B1860521C00BFF3488068102393
:101A90001842FAD0F04880680223184203D100208F
:101AA000ED4B98600CE00120EB4B186100BFEA4859
:101AB0000069C007C00FFAD1E74B98600120CBE75F
:101AC0000846491E0028DBD100BFC5E700BFE24A37
:101AD000926828231A42FAD109E000BFDE4A52690F
:101AE00002231A42FAD1DC4A12680270401C0A46EC
:101AF000491E002AF1D17047FFB581B093079B0FB3
:101B0000002902D1019805B0F0BDD44E0198B06013
:101B100004988007400F401C3060072902D8002439
:101B20000D462AE0CD4800680090002B11D004201B
:101B3000C31AC91AC948006820263043C74E30600E
:101B400003E01078C54E7060521C18465B1E0028DA
:101B5000F7D18C088D07AD0FC04E00983060002C77
:101B60000AD0104602E040C8BC4F7E602646641E84
:101B7000002EF8D1024600BF00BF002D0ED0B7489E
:101B8000006820263043B54E306003E01078B34E35
:101B90007060521C28466D1E0028F7D1AF4840687F
:101BA00080B2B0E710B503E00B780370401C491C0D
:101BB0001346521E002BF7D110BD1CB5044601225E
:101BC000A7492046FFF7EEFF0122A5490E3101A8E3
:101BD000FFF7E8FF0122A249491C6846FFF7E2FF30
:101BE0006846007910210840C10068460079C007A6
:101BF000400E014368460171007801110A204143FB
:101C0000684600780007000F0818C1B268460170E6
:101C100000788106890E6846017000796946097866
:101C20000843607001228E491331A01CFFF7BAFFF0
:101C300001228B491431E01CFFF7B4FF01228849CF
:101C40001531201DFFF7AEFF012285491631601DB9
:101C5000FFF7A8FF01228249891CA01DFFF7A2FF00
:101C600001227F49C91CE01DFFF79CFF01227C492E
:101C7000113120460830FFF795FF012278491231D3
:101C800020460930FFF78EFF01227549091D2046C5
:101C90000A30FFF787FF01227149491D20460B30AA
:101CA000FFF780FF01226E49891D20460C30FFF7A7
:101CB00079FF1CBD10B50446202269490939204628
:101CC000FFF770FF10BDF3B581B0054602980128FB
:101CD00007D164488068012109030843614988608D
:101CE00006E0604880680121090388435D498860F7
:101CF0005C4884688068702108400609AE420AD1B9
:101D000009042046884304465748405D00050443C3
:101D100054488460FEBDAE4201D9771B00E0AF1B82
:101D2000022F01D0062F13D170212046884304468C
:101D3000102004434B4884602B20FEF7D9F9702112
:101D4000204688430446280104434648846007E04F
:101D5000702120468843044628010443414884609A
:101D6000072109052046884304463F48405D000599
:101D700004433C48846000BFCCE7F8B539480668A6
:101D80008568702028400409012000032840070BC3
:101D9000812000013349486001210620FFF793FFAD
:101DA0002D4880680821084209D12B48406902214A
:101DB000084204D02D480078002800D120BF002C14
:101DC00005D0012C03D0022C01D0062C03D1F9B28E
:101DD000E0B2FFF778FF23480660F8BD10B503E0D6
:101DE0000B780370491C401C1346521E002BF7D180
:101DF00010BD08B501466A4611700804000E507007
:101E00000802000E9070080ED070009808BDFFB553
:101E100006460F46B007800F019004210198081A6A
:101E20000090002F00D1FFBD0198002864D0042F3E
:101E300036D8781E0E494860F0780006B17809045B
:101E40000843717809020843317808430849403152
:101E50000860074880690DE0400010005000500005
:101E60001FFFFE09500072000000AA1C2000066639
:101E70004000180001210843FB49886100BFFA486F
:101E80008068C007C00FFAD0F7488068400840005B
:101E9000F549886008464069400840004861C2E74B
:101EA0000098401EF0494860F0780006B1780904B7
:101EB000084371780902084331780843EA49403100
:101EC0000860E948806901210843E749886100BF4B
:101ED000E5488068C007C00FFAD0E3488068400832
:101EE0004000E14988600846406940084000486178
:101EF00000983F1A00983618380903903807000FE9
:101F0000029034460398002831D00F20D64948600B
:101F100028E0D54D403501CCFFF76BFF01C501CC62
:101F2000FFF767FF01C501CCFFF763FF01C501CCD7
:101F3000FFF75FFF01C5CC48806901210843CA490A
:101F4000886100BFC8488068C007C00FFAD0C64883
:101F5000806840084000C4498860084640694008DD
:101F6000400048610398411E03910028D1D1029896
:101F700000282CD00298401EBB494860BA4D40351D
:101F800001CCFFF736FF01C501CCFFF732FF01C5D9
:101F900001CCFFF72EFF01C501CCFFF72AFF01C5D9
:101FA000B148806901210843AF49886100BFAE484C
:101FB0008068C007C00FFAD0AB4880684008400076
:101FC000A94988600846406940084000486100BF50
:101FD00029E7F0B588B007460E46B807800F059090
:101FE00004210598081A0490002E01D108B0F0BD14
:101FF000059800285ED06C469B4D4035102E2FD89A
:10200000701E994948600846806901210843964935
:10201000886100BF94488068C007C00FFAD001CD26
:10202000FFF7E7FE01C401CDFFF7E3FE01C401CDD8
:10203000FFF7DFFE01C401CDFFF7DBFE01C48A48D4
:102040008068400840008849886008464069400828
:1020500040004861324669463846FFF7BFFEC5E793
:102060000498401E80494860084680690121084361
:102070007D49886100BF7C488068C007C00FFAD0E6
:10208000794940310868FFF7B4FE01C4764880689A
:102090004008400074498860084640694008400094
:1020A000486169463846049AFFF798FE04983F183D
:1020B0000498361A300907903007000F06903C4606
:1020C0000798002832D00F206749486028E0664D05
:1020D000403565488069012108436349886100BF34
:1020E00061488068C007C00FFAD001CDFFF781FEBC
:1020F00001C401CDFFF77DFE01C401CDFFF779FEDC
:1021000001C401CDFFF775FE01C45748806840083F
:1021100040005549886008464069400840004861D1
:102120000798411E07910028D1D12746069800281C
:1021300032D00698401E4C4948606C464A4D4035A6
:1021400008468069012108434749886100BF464825
:102150008068C007C00FFAD001CDFFF74AFE01C466
:1021600001CDFFF746FE01C401CDFFF742FE01C4D9
:1021700001CDFFF73EFE01C43B48806840084000A7
:10218000394988600846406940084000486169460E
:102190003846069AFFF722FE00BF27E7FEB506463F
:1021A0000F460020029001903DE034462E4D403510
:1021B000204607F0BCF8241D0090FFF71AFE01C569
:1021C000204607F0B4F8241D0090FFF712FE01C569
:1021D000204607F0ACF8241D0090FFF70AFE01C569
:1021E000204607F0A4F8241D0090FFF702FE01C569
:1021F0001D488068400840001B49886008464069C7
:1022000040084000486100BF17488068C007C00F01
:10221000FAD015484068401C029002990198401875
:102220000190029836180198B842BED3FEBDF3B5AE
:1022300085B00E4600270020049043E06C460A4D0E
:10224000403500BF08488068C007C00FFAD0064874
:1022500080680221084209D0034880688843024907
:102260008860012007B0F0BD4000180018484068A1
:10227000471C01CDFFF7BDFD01C401CDFFF7B9FD3E
:1022800001C401CDFFF7B5FD01C401CDFFF7B1FDDC
:1022900001C43A4669460598FFF7A0FD0598C019A4
:1022A00005900498C01904900498B0420AD20848D6
:1022B0008068400840000649886008464069400838
:1022C000400048610498B042B8D30020CAE700003B
:1022D00040001800F8B506460F46154600BF4048B6
:1022E0000068FF21013188433D49086072B63C48CF
:1022F0008038006B3A49086239488038406B486240
:1023000037488038806B8862022D1CD0092D01D09F
:102310000A2D03D10020C043306014E0002F09D102
:10232000002404E00020C043A1007050641C802CF5
:10233000F8D308E0002404E0A0003858A100705051
:10234000641C802CF8D327492943084607F00EFD6A
:1023500000BF23480068C007C00FFAD162B620480A
:102360000068FF2101310842B9D1F8BD10B504461B
:10237000640A6402052200212046FFF7ABFF1848DB
:10238000006801214902084207D0154800688843C7
:10239000134908600020C04310BD0020FCE770B561
:1023A00004460D46640A6402052229462046FFF7CA
:1023B00091FF0B48006801214902084207D00848F4
:1023C00000688843064908600020C04370BD0020B3
:1023D000FCE710B5022200210846FFF77BFF10BD85
:1023E0005000708057AF6C0030B4FF4A8307146B05
:1023F0009B0FA40703D5146B0225AC431463072974
:102400001CD9002B0DD00424E41A091B631E002CD8
:1024100007D0146BE407FCD0546B0470401C5B1EA7
:10242000F7D28B088907890F002B07D05B1E146B2E
:10243000E407FCD0546B5B1E10C0F8D2002908D012
:10244000491E136BDB07FCD0536B0370401C491E05
:10245000F7D230BC70474168002901D0490701D04C
:1024600001207047F0B4E1490F680A6802231A435B
:102470000A60027D0523120912011B0780260275DE
:10248000002A02D0402A04D102E000225A6000E073
:102490005E608268D64C15682560241D52682260F3
:1024A0000268D44C15682560251D52682A601A6898
:1024B00032431A60D04A136A5B00FCD40069226878
:1024C00002602A68426048680222104348600F6038
:1024D000F0BC00207047F0B50F46C3499DB00A6BB1
:1024E000920703D50A6B02239A430A6314AA0723AF
:1024F0000C6BE407FCD04C6B5B1E10C2F8D21AAD1B
:1025000014AA0821029200950495019100226B46BD
:102510001A7516AB0893069540240A95079108ABE7
:102520001C730D9118A90E91FC080C9510AB109519
:10253000641C1A71790700D1641E0646641E17D305
:102540006846FFF788FF06A8FFF785FF0CA8FFF78E
:1025500082FF002C07D02946304607F022FC0836BF
:10256000083F641EECE73A462946304606F075FE01
:102570001DB0F0BD10B49C48C16AC907FCD0C16A47
:10258000890716D4002211468B001C18A36B891CE6
:102590005B1F5B439A18E36B5B1F5B439A18102920
:1025A000F2D3816A012319438162FF2046308242BF
:1025B00002D910BC0120704710BC00207047F0B554
:1025C00089B0102104A8FFF786FF00200090019039
:1025D0000290039004A810226C46017889098900B2
:1025E00063585B1C635001788906890F8900635822
:1025F0005B1C635001780907890F890063585B1CD5
:1026000063500178401C8907090F63585B1C6350B5
:10261000521EE2D10026241F35460227606840433F
:1026200007F05DF92A46334607F0FBF80546A06837
:102630000E46404307F053F92A46334607F0F1F8B7
:10264000083405460E467F1EE8D16DA108686B4C24
:1026500049682A46334607F049F92246002307F025
:10266000EDF8694A694B07F0ADFB02D2012009B0D1
:10267000F0BD002009B0F0BD6549016065494160C9
:10268000654981606549C160654901610021416119
:10269000704703460B40824318461043704748403A
:1026A0005040704703460846104318401140084305
:1026B000704770B5402504462A46FDF721FD3434A5
:1026C000204640382168C26A51404269C068424091
:1026D00051401F20C141E160241D6D1EF0D170BD2D
:1026E000F3B5A3B0044650210EA806F01EFE5020FC
:1026F0000C900025402221460EA8FDF701FD2498EC
:1027000000680790009024984468089480680990B5
:1027100002902498C0680A900390249800690B9056
:102720000490249824994069FF30FF3002304861BA
:102730001421284606F006FE0691102D1BD28900B2
:102740000EA8415800981B22D0410A180299204631
:1027500008400399A14308430499401831491018CF
:10276000401803990491029903910221CC410294EB
:10277000009C00900FE1142D26D28B000EAA981811
:102780004038066A416B7140866800684640714077
:102790001F20C141D15000981B22D0410A18029835
:1027A000214601400398A0430143049808181D499D
:1027B0001018401803990491029903910221CC4109
:1027C0000294009C0090E6E0282D5FD21421E81EC0
:1027D00006F0B8FD89000EA846582846142108388E
:1027E00006F0B0FD89001FE0400028005000720094
:1027F00050000018500000105000740040500000BD
:102800003FB00000000000004026B0A3D70A3D7191
:1028100067452301EFCDAB8998BADCFE10325476C0
:10282000C3D2E1F05A8279990EA84058142146404B
:1028300028460E3806F086FD89000EA8475828461F
:102840001421103806F07EFD89000EA8405847403C
:102850007E401F20C641069881000EA84650009871
:102860001B21C841321802980399604048400499DE
:1028700040181118FE480818039904910299039111
:102880000221CC410294009C009084E03C2D41D276
:102890001421E81E06F056FD89000EA84658284669
:1028A0001421083806F04EFD89000EA84058142166
:1028B000464028460E3806F045FD89000EA84758C8
:1028C00028461421103806F03DFD89000EA8405816
:1028D00047407E401F20C641069881000EA8465002
:1028E00000981B21C841331803990298039A0843A2
:1028F0000299204011400843049904924018191885
:10290000DC480818029903910221CC410294009CF2
:10291000009040E0502D3ED21421E81E06F012FD3A
:1029200089000EA8465828461421083806F00AFDEA
:1029300089000EA840581421464028460E3806F05B
:1029400001FD89000EA8475828461421103806F0CA
:10295000F9FC89000EA8405847407E401F20C64120
:10296000069881000EA8465000981B21C8413218D5
:10297000029920464840039948400499401811188C
:10298000BD48081803990491029903910221CC4192
:102990000294009C00900C986D1C401E0C9000D07E
:1029A000C6E6009907984118249801600898011913
:1029B00024984160029909984118249881600399EC
:1029C0000A9841182498C16004990B9841182498DA
:1029D000016150210EA806F0A8FC25B0F0BD30B46E
:1029E0004969D3005D18002A03D0372A03D977211B
:1029F00002E04022FBE737218C1A821880201070F9
:102A0000521C0023002C0CD0501EE10701D0401CAA
:102A10000370610804D04370801C0370491EFAD112
:102A20001219137053709370D370280E1071280C04
:102A30005071280A9071D57130BC7047F0B5A1B0C3
:102A400005460F4614468021684606F06EFC224675
:102A500029466846FDF754FB7A69E3009E186946EB
:102A60002046002C03D0372803D9772202E04020EB
:102A7000FBE73722151A091880200870491C00232B
:102A8000002D0CD0481EEA0701D0401C03706A08D4
:102A900004D04370801C0370521EFAD149190B7088
:102AA0004B708B70CB70300E0871300C4871300A4F
:102AB0008871CE7110AD002C05D039466846FFF7FD
:102AC0000FFE372C03D939462846FFF709FE21B0FF
:102AD000F0BD10B50B46402A06D00AD20146184672
:102AE000FFF7ACFF002010BD01461846FFF7F8FDC8
:102AF000F8E7012010BD6149016061494160614909
:102B000081606149C1606149016161494161614917
:102B100081616149C16100210162704703460B4038
:102B200082431846504070470346084650401840BC
:102B300011404840704702220146D1410D23024610
:102B4000DA4151401622D0414840704706220146E2
:102B5000D1410B230246DA4151401922D04148406D
:102B6000704707220146D14112230246DA41514003
:102B7000C0084840704711220146D1411323024644
:102B8000DA415140800A48407047F8B50446403465
:102B90004022FDF7B5FA302521464039886B1123D4
:102BA0000246DA4113260346F3415A404B68800A35
:102BB000424007261846F04112261F46F74178404A
:102BC000DB08584010184A6A09685118401801C4B7
:102BD0006D1EE1D1F8BDF3B5D5B0014614A824AC03
:102BE0004022FDF78DFA30212246403A906B1125A4
:102BF0000346EB4113260546F5416B40800A4340EE
:102C0000506807260546F54112260746F7417D40E4
:102C1000C00845405819536A12689A18801801C4B0
:102C2000491EE1D15698569B02680C924168089162
:102C300087680997C0680D900090569800690E90BB
:102C40005B690A939C46569B9B690F939E46569BD5
:102C5000DB6910930B93569B569C1B6AFF33FF3323
:102C600002330026236206250446EC410B2515E0BD
:102C70006ED9EBA18F1BBCDCCA62C1D66A09E667BC
:102C8000BB67AE853C6EF372A54FF53A510E527F8D
:102C90009B05688C1F83D9AB5BE0CD190346EB41E4
:102CA0005C4019250346EB415C4065467346054090
:102CB00083435D406519B300704C0193E4580B9B4E
:102CC000E318ED18019B14ACE3581446EB1801937C
:102CD00002251346EB410D25EC41634016251446B1
:102CE000EC4163400C467C400D4614403D406C4036
:102CF0001C197346E646844600980B93019B009787
:102D00000F461146C0181A19761C402EABD30C9BE7
:102D10009B18569A1360089A521856994A60099956
:102D2000CA1956998A60009A0D998A185699CA60EC
:102D30000E990918569801610A98614641185698EB
:102D400041610F9871464118569881610B9910980E
:102D500041185698C161FF21013114A806F0E5FA27
:102D600057B0F0BD30B4096AD3005D18002A03D013
:102D7000372A03D9772102E04022FBE737218C1A5A
:102D8000821880201070521C0023002C0CD0501E82
:102D9000E10701D0401C0370610804D04370801C1F
:102DA0000370491EFAD11219137053709370D370C7
:102DB000280E1071280C5071280A9071D57130BC02
:102DC0007047F0B5A1B005460F461446802168460D
:102DD00006F0ABFA224629466846FDF791F93A6AB1
:102DE000E3009E1869462046002C03D0372803D9FB
:102DF000772202E04020FBE73722151A09188020CD
:102E00000870491C0023002D0CD0481EEA0701D091
:102E1000401C03706A0804D04370801C0370521E6B
:102E2000FAD149190B704B708B70CB70300E087152
:102E3000300C4871300A8871CE7110AD002C05D06D
:102E400039466846FFF7C7FE372C03D9394628466E
:102E5000FFF7C1FE21B0F0BD10B50B46402A06D0E9
:102E60000AD201461846FFF7ACFF002010BD01460C
:102E70001846FFF7B0FEF8E7012010BD0000AA24B5
:102E80000F48002101634163816370470C480D497D
:102E90000163C94341630C49816370470848016B72
:102EA000084A914207D1416BD243914203D1806BD2
:102EB0000549884203D010B5FDF73EF910BD7047B3
:102EC00050007000AA55AA55A5A55A5A10B5A24A95
:102ED00092685206520F12D1002802D0012802D067
:102EE00002E01C2200E015229B4C8034002907D010
:102EF000491C04D15720FDF7FFF80020606110BD88
:102F000062615720FDF7F8F810BD10B504460021A6
:102F10000846FFF7DBFF9149204688470446002119
:102F2000C9430020FFF7D2FF204610BD10B504466C
:102F300000210846FFF7CAFF884920460831884724
:102F400004460021C9430020FFF7C0FF204610BD02
:102F500010B5044600210846FFF7B8FF7F49204618
:102F60001031884704460021C9430020FFF7AEFF17
:102F7000204610BD10B5044600210846FFF7A6FF05
:102F8000764920461831884704460021C94300206D
:102F9000FFF79CFF204610BD30B4704C2034A4468F
:102FA00030BC604710B5044600210846FFF78EFF8D
:102FB0006A4920462831884704460021C943002039
:102FC000FFF784FF204610BD30B4644C3834A4466B
:102FD00030BC604710B5044600210846FFF776FF75
:102FE0005E4920464031884704460021C9430020FD
:102FF000FFF76CFF204610BD10B5044600210846BF
:10300000FFF764FF554920465031884704460021A8
:10301000C9430020FFF75AFF204610BD70B50D468A
:10302000044600210846FFF751FF4C4A2946204636
:103030005832904704460021C9430020FFF746FF5D
:10304000204670BD70B50D46044600210846FFF7C6
:103050003DFF424A294620466032904704460021FF
:10306000C9430020FFF732FF204670BD10B504466B
:1030700000210846FFF72AFF3849204630318847AB
:1030800004460021C9430020FFF720FF204610BD61
:1030900010B5044600210846FFF718FF2F492046C7
:1030A0004831884704460021C9430020FFF70EFF3E
:1030B000204610BD70B50D46044600210846FFF7B6
:1030C00005FF264A294620466832904704460021DB
:1030D000C9430020FFF7FAFE204670BD70B50D46CB
:1030E000044600210846FFF7F1FE1C4A2946204607
:1030F0007032904704460021C9430020FFF7E6FEE6
:10310000204670BD154978310847144B8033184765
:103110001249883108471149E831084710B504467B
:1031200000210120FFF7D2FE0C492046903188474C
:1031300004460021C9430120FFF7C8FE204610BD08
:103140000648C0300047054AC83210470348E030FF
:1031500000470248D0300047500072001FF80005B9
:103160004168002901D0090701D001207047F0B55E
:10317000F8499DB00F680A6820231A430A60F6498F
:103180000B680C68017D80224D06002D03DA0D06C8
:1031900001D4CD0603D593431443099302E01343AE
:1031A000944309938B060A949B0F01D1090608D515
:1031B000C1680B6802934B6803938B680493C968DA
:1031C0000591416806680369090901934B1E07933D
:1031D000002900D1FEE3E1494A68D207FCD08A68A1
:1031E00053075B0F00221D461446002B03D9521CC7
:1031F000641C9C42FBD3AA4200D0002293422DD0F3
:103200000CA807224B68DB07FCD08B68521E08C055
:10321000F8D202A803224B68DB07FCD08B68521E51
:1032200008C0F8D218A803224B68DB07FCD08B68D3
:10323000521E08C0F8D2CA4803224B68DB07FCD0F4
:103240008B68521E08C0F8D2C64A03204B68DB07C1
:10325000FCD08B68401E08C2F8D2FDE3027D530605
:1032600003D4930601D5D30601D5120610D504CE9A
:10327000029B5A400C9204CE039B5A400D9204CEFE
:10328000049B5A400E9204CE059B5A400F9207E0D1
:1032900004CE0C9204CE0D9204CE0E9204CE0F9268
:1032A0004A68D207FCD08A6853075B0F00221D468C
:1032B0001446002B03D9521C641C9C42FBD3AA4227
:1032C00000D0002293422DD00CA807224B68DB07C8
:1032D000FCD08B68521E08C0F8D202A803224B68AB
:1032E000DB07FCD08B68521E08C0F8D218A8032256
:1032F0004B68DB07FCD08B68521E08C0F8D2984898
:1033000003224B68DB07FCD08B68521E08C0F8D242
:10331000944803224B68DB07FCD08B68521E08C020
:10332000F8D299E34A68D207FCD08A6895078D4A9B
:10333000AD0F944618AA03234C68E407FCD08C68B0
:103340005B1E10C2F8D2AA0018AB9B586446A3506B
:1033500001226A40920018AB9B58A35002226A4097
:10336000920018AB9B58A35003225540AA0018ABFB
:103370009B58A3504A68D207FCD08A6853075B0F5A
:1033800000221D461446002B03D9521C641C9C428B
:10339000FBD3AA4200D0002293422DD00CAA0720D2
:1033A0004B68DB07FCD08B68401E08C2F8D202A82D
:1033B00003224B68DB07FCD08B68521E08C0F8D292
:1033C00018AA03204B68DB07FCD08B68401E08C29C
:1033D000F8D2634A03204B68DB07FCD08B68401EA1
:1033E00008C2F8D25F4803224B68DB07FCD08B6829
:1033F000521E08C0F8D22FE34A68D207FCD05749C2
:10340000896882688907890F8B00564DD458EC5023
:1034100001234B409B00D458EC5002234B409B00AF
:10342000D458EC5003235940890053586B504B4CEF
:103430006168C907FCD0A1684A07520F00211546F0
:103440000B46002A03D9491C5B1C9342FBD3A942BB
:1034500000D000218A422DD00CA807216268D20733
:10346000FCD0A268491E04C0F8D202A803216268F9
:10347000D207FCD0A268491E04C0F8D218A80321C4
:103480006268D207FCD0A268491E04C0F8D2344852
:1034900003216268D207FCD0A268491E04C0F8D29A
:1034A000304803216268D207FCD0A268491E04C0DC
:1034B000F8D2D1E22A490C9A0A600D9A091D0A60D5
:1034C0000E9A091D0A600F9A091D0A606168C907F2
:1034D000FCD0A16825464A070021520F0B46002A5E
:1034E00003D9491C5B1C9342FBD31346914200D085
:1034F00000218B4238D00CAA072128464368DB07FD
:10350000FCD08368491E08C2F8D202A9032243688E
:10351000DB07FCD08368521E08C1F8D218A9032229
:103520004368DB07FCD08368521E08C1F8D20C4AFE
:1035300003214368DB07FCD08368491E08C2F8D228
:10354000084903224368DB07FCD08368521E08C188
:10355000F8D281E25000720050002800500038007C
:103560005000281850002808FE49099A0A604A6845
:1035700080231A434A60FC4B196A0029FCDBFB4993
:1035800009681091FA4909681191FA49096812917C
:10359000F9490968139129464A68D207FCD08A681C
:1035A0005407640F0022A4461546002C03D9521C70
:1035B0006D1CA542FBD3624500D0002294452DD05E
:1035C0000CAA07234868C007FCD088685B1E01C2AC
:1035D000F8D202AA03204B68DB07FCD08B68401EA0
:1035E00008C2F8D218A803224B68DB07FCD08B680E
:1035F000521E08C0F8D2DD4803234A68D207FCD027
:103600008A685B1E04C0F8D2DC4803224B68DB07E3
:10361000FCD08B68521E08C0F8D21DE24A68D2075F
:10362000FCD08A689207920F0B92D44A03249446E6
:1036300018AA4D68ED07FCD08D68641E20C2F8D230
:103640000B9A18AC9200A4586546AC500B9A012412
:103650006240920018ACA458AC500B9A022462400D
:10366000920018ACA458AC500B9C03225440A2000A
:1036700018ACA458AC504A68D207FCD08A685407EA
:10368000640F0022A4461546002C03D9521C6D1C61
:10369000A542FBD3624500D0002294452DD00CA852
:1036A00007224B68DB07FCD08B68521E08C0F8D29B
:1036B00002A803224B68DB07FCD08B68521E08C0AF
:1036C000F8D218A803224B68DB07FCD08B68521E87
:1036D00008C0F8D2A54803224B68DB07FCD08B68F2
:1036E000521E08C0F8D2A54803224B68DB07FCD065
:1036F0008B68521E08C0F8D2AEE14A68D207FCD0EF
:103700009F49896884688907890F8A00A558A4465B
:103710009A4CA55001224A4092006446A558974C05
:10372000A55002224A4092006446A558934CA550E9
:1037300003225140890064466458904A545090498D
:103740004A68D207FCD08E4989684A07520F002187
:1037500015460C46002A03D9491C641C9442FBD32D
:10376000A94200D000218A422ED085490CA8072208
:103770004B68DB07FCD08B68521E08C0F8D202AA47
:1037800003204B68DB07FCD08B68401E08C2F8D2D0
:1037900018A803224B68DB07FCD08B68521E08C0B8
:1037A000F8D2724803224B68DB07FCD08B68521EAC
:1037B00008C0F8D2714803224B68DB07FCD08B6845
:1037C000521E08C0F8D247E16849109A0A60119A5F
:1037D000091D0A60129A091D0A60139A091D0A60E0
:1037E00060490A9A0A604A68802422434A60196A3A
:1037F0000029FCDB624C6168C907FCD0A1688A061D
:10380000920E002115460B46002A03D9491C5B1C69
:103810009342FBD3A94200D000218A422DD00CA8AC
:1038200007216268D207FCD0A268491E04C0F8D202
:1038300002A803216268D207FCD0A268491E04C016
:10384000F8D218A803216268D207FCD0A268491EEA
:1038500004C0F8D2454803216268D207FCD0A268B0
:10386000491E04C0F8D2454803216268D207FCD043
:10387000A268491E04C0F8D2EEE03C490C9A0D9BA8
:103880005A400E9B0F9D6B400D685A404B685D403F
:103890008B68C9684B405D40AA422DD00CA8072117
:1038A0006268D207FCD0A268491E04C0F8D202A800
:1038B00003216268D207FCD0A268491E04C0F8D276
:1038C00018A803216268D207FCD0A268491E04C070
:1038D000F8D2264803216268D207FCD0A268491EAC
:1038E00004C0F8D2254803216268D207FCD0A26840
:1038F000491E04C0F8D2AFE06168C907FCD0A168D6
:103900008A06920E002194460B46002A03D9491CD0
:103910005B1C9342FBD3614500D000218C453ED017
:103920000CA807216268D207FCD0A268491E04C017
:10393000F8D202A803216268D207FCD0A268491E0F
:1039400004C0F8D218A803216268D207FCD0A2688C
:10395000491E04C0F8D2054803216268D207FCD092
:10396000A2680FE050002800500074005000281892
:103970005000281C500028205000282450002808FF
:103980005000380004C0491EE7D26C480321626829
:10399000D207FCD0A268491E04C0F8D25CE00C99A2
:1039A0000D9A51400E9A0F9BD243DB435A4051402F
:1039B000A94224D1017D4A0603D48A0601D5CA064C
:1039C00001D50A0651D5109A01990A600199119AF8
:1039D000091D00E07BE004C1129A04C1139A04C1DE
:1039E00001911099029111990391129904911399DF
:1039F0000591017D090664D50199103960E00CA894
:103A000007216268D207FCD0A268491E04C0F8D220
:103A100002A803216268D207FCD0A268491E04C034
:103A2000F8D218A803216268D207FCD0A268491E08
:103A300004C0F8D2424803216268D207FCD0A268D1
:103A4000491E04C0F8D23D4903206268D207FCD069
:103A5000A268401E04C1F8D23A48416820221143AE
:103A60004160076001201DB0F0BD4A061DD58A06E1
:103A70001BD5C90619D41099029A51401091119979
:103A8000039A514011911299049A5140129113993D
:103A9000059A51401391314640390A6B02924A6BA4
:103AA00003928A6B0492C96B0591109A01990A607E
:103AB0000199119A091D04C1129A04C1139A04C1F3
:103AC00001910799491E079101D3FFF784FB1E4816
:103AD0000CA907224368DB07FCD08368521E08C18B
:103AE000F8D202A903224368DB07FCD08368521E88
:103AF00008C1F8D218A903224368DB07FCD0836809
:103B0000521E08C1F8D20E4903224368DB07FCD0DD
:103B10008368521E08C1F8D2084903224368DB07B4
:103B2000FCD08368521E08C1F8D2064841682022A2
:103B300011434160076000201DB0F0BD500028080F
:103B4000500028185000720050003800F0B584462C
:103B5000406899B0002801D0400702D0012019B078
:103B6000F0BDF84805680168022211430160052391
:103B70001B075868A422904361461090097D644653
:103B80000909090121752024A026002907D024272E
:103B900020290DD0402906D0602912D10DE0109ABD
:103BA0002043324302E0109A30432243109208E04F
:103BB000109C38431443109403E01043109A3A4386
:103BC0001092E14A89060BD56146C968141F40C9A5
:103BD000266010C9146040398C6B0094C96B019148
:103BE0006146496864462468119464462469C9089A
:103BF00009944C1E0C94002900D1FDE3D3494A6876
:103C0000D207FCD08A6853075B0F00221E46144679
:103C1000002B03D9521C641C9C42FBD3B24200D03F
:103C2000002293423FD004AA03204B68DB07FCD05C
:103C30008B68401E08C2F8D2684603224B68DB0737
:103C4000FCD08B68521E08C0F8D214A803224B681F
:103C5000DB07FCD08B68521E08C0F8D20AA80122EC
:103C60004B68DB07FCD08B68521E08C0F8D2B848FE
:103C700001224B68DB07FCD08B68521E08C0F8D2CB
:103C8000B44801224B68DB07FCD08B68521E08C089
:103C9000F8D2B14803224B68DB07FCD08B68521E78
:103CA00008C0F8D237E24A68D207FCD08A68AA4F27
:103CB0009607B60F14AA03234C68E407FCD08C685F
:103CC0005B1E10C2F8D2B20014ACA358BB50012244
:103CD00072409200A358BB50022272409200A35837
:103CE000BB5003225640B200A358BB504A68D207CB
:103CF000FCD08A6853075B0F00221E461446002B37
:103D000003D9521C641C9C42FBD3B24200D0002257
:103D100093423FD004A803224B68DB07FCD08B689A
:103D2000521E08C0F8D2684603224B68DB07FCD05D
:103D30008B68521E08C0F8D214A803224B68DB0718
:103D4000FCD08B68521E08C0F8D20AA801224B682A
:103D5000DB07FCD08B68521E08C0F8D27C480122D9
:103D60004B68DB07FCD08B68521E08C0F8D279483C
:103D700001224B68DB07FCD08B68521E08C0F8D2CA
:103D8000754803224B68DB07FCD08B68521E08C0C5
:103D9000F8D2C0E14A68D207FCD00F468968634672
:103DA0008907890F9B688C006B4A1E5916510124A4
:103DB0004C40A4001E59165102244C40A4001E5928
:103DC00016510324614089005B5853507968C90734
:103DD000FCD0B9684A07520F002114460B46002A4E
:103DE00003D9491C5B1C9342FBD3A14200D00021A4
:103DF0008A423FD004A803217A68D207FCD0BA686F
:103E0000491E04C0F8D2684603217A68D207FCD064
:103E1000BA68491E04C0F8D214A903207A68D207F0
:103E2000FCD0BA68401E04C1F8D20AA801217A6801
:103E3000D207FCD0BA68491E04C0F8D24448012118
:103E40007A68D207FCD0BA68491E04C0F8D241484B
:103E500001217A68D207FCD0BA68491E04C0F8D2A2
:103E60003D4803217A68D207FCD0BA68491E04C0D5
:103E7000F8D250E1052109074860119A35491268C6
:103E80000A601199354A091D08C91360119140391A
:103E90008A6B0492C96B05917968C907FCD0B9682F
:103EA0004A070021520F0B46002A03D9491C5B1C0C
:103EB0009342FBD31346914200D000218B424FD056
:103EC00004A9032238464368DB07FCD08368521EEE
:103ED00008C1F8D2694603224368DB07FCD0836837
:103EE000521E08C1F8D214A903224368DB07FCD094
:103EF0008368521E08C1F8D20AA901224368DB0771
:103F0000FCD08368521E08C1F8D2114901224368CF
:103F1000DB07FCD08368521E08C1F8D20D4901228C
:103F20004368DB07FCD08368521E08C1F8D20A49F7
:103F300003224368DB07FCD08368521E08C1F8D215
:103F4000F3E30000500072005000000C50003800F5
:103F500050000008500000105000001850000014DD
:103F6000052109070A6880231A430A60FE4B196A73
:103F70004900FCD439464A68D207FCD08A68540705
:103F8000640F002227461646002C03D9521C761CCB
:103F9000A642FBD3BA4200D0002294423FD004A8EC
:103FA00003224B68DB07FCD08B68521E08C0F8D296
:103FB0006A4603204B68DB07FCD08B68401E08C2B2
:103FC000F8D214A803224B68DB07FCD08B68521E82
:103FD00008C0F8D20AA801224B68DB07FCD08B6826
:103FE000521E08C0F8D2E14801224B68DB07FCD022
:103FF0008B68521E08C0F8D2DD4801224B68DB07EF
:10400000FCD08B68521E08C0F8D2DA4803224B68F5
:10401000DB07FCD08B68521E08C0F8D285E3D44A77
:1040200014680A94171D3C680B94BE06109C7460BB
:104030000A9C14600B9A3A606246127D202A02D0D4
:10404000602A0BD014E00A9A02920B9A0392C74A94
:10405000009C1460019C121D146009E0049A0292F5
:10406000059A0392C14A009C1460019C121D1460C1
:104070004A68D207FCD08A685407640F002227469A
:104080001646002C03D9521C761CA642FBD3BA421A
:1040900000D0002294423FD004A803224B68DB07E3
:1040A000FCD08B68521E08C0F8D2684603224B68C9
:1040B000DB07FCD08B68521E08C0F8D214A803227C
:1040C0004B68DB07FCD08B68521E08C0F8D20AAAE6
:1040D00001204B68DB07FCD08B68401E08C2F8D279
:1040E000A24801224B68DB07FCD08B68521E08C037
:1040F000F8D29F4801224B68DB07FCD08B68521E28
:1041000008C0F8D29B4803224B68DB07FCD08B68C1
:10411000521E08C0F8D208E34A68D207FCD08A6869
:10412000944F9207920F139214AA03244E68F60735
:10413000FCD08E68641E40C2F8D2139A14AE92006E
:10414000B458BC50139A012462409200B458BC5039
:10415000139A022462409200B458BC50139A03246C
:1041600062409200B458BC504A68D207FCD08A68BA
:104170005407640F002227461646002C03D9521C10
:10418000761CA642FBD3BA4200D0002294423FD014
:1041900004A803224B68DB07FCD08B68521E08C0C2
:1041A000F8D2684603224B68DB07FCD08B68521EAE
:1041B00008C0F8D214A803224B68DB07FCD08B6838
:1041C000521E08C0F8D20AA801224B68DB07FCD0B7
:1041D0008B68521E08C0F8D2644801224B68DB0786
:1041E000FCD08B68521E08C0F8D2614801224B688F
:1041F000DB07FCD08B68521E08C0F8D25D48032252
:104200004B68DB07FCD08B68521E08C0F8D28CE2EA
:104210004A68D207FCD05849896862468907890FE5
:1042200097688A00BE58534CA65001224A4092001B
:10423000BE58A65002224A409200BE58A650032201
:10424000514089007C584B4A54504B494A68D20728
:10425000FCD00F4689684A07520F002116460C46CB
:10426000002A03D9491C641C9442FBD3B14200D0FC
:1042700000218A4240D004A8032239464B68DB075C
:10428000FCD08B68521E08C0F8D2684603224B68E7
:10429000DB07FCD08B68521E08C0F8D214A803229A
:1042A0004B68DB07FCD08B68521E08C0F8D20AA806
:1042B00001224B68DB07FCD08B68521E08C0F8D285
:1042C0002A4801224B68DB07FCD08B68521E08C0CD
:1042D000F8D2274801224B68DB07FCD08B68521EBE
:1042E00008C0F8D2234803224B68DB07FCD08B6858
:1042F000521E08C0F8D218E2052109070A68802476
:1043000022430A60196A4900FCD43C466168C90727
:10431000FCD0A1684A07520F002116460B46002A1E
:1043200003D9491C5B1C9342FBD3B14200D000214E
:104330008A424AD004A803216268D207FCD0A2684E
:10434000491E04C0F8D2684603216268D207FCD037
:10435000A268491E04C0F8D214A803216268D207DB
:10436000FCD0A26804C009E05000740050000008AE
:10437000500000105000001850003800491EEDD2C7
:104380000AA801216268D207FCD0A268491E04C0B5
:10439000F8D2EA4901206268D207FCD0A268401E28
:1043A00004C1F8D2E64801216268D207FCD0A268B5
:1043B000491E04C0F8D2E34803216268D207FCD04A
:1043C000A268491E04C0F8D2AFE1DD490968069130
:1043D000DD49096807916146097D202901D06029DE
:1043E00009D10299009103990191D449029A0A6076
:1043F000039A091D0A6000E00AE16168C907FAD062
:10440000A1688A06920E002116460B46002A03D99F
:10441000491C5B1C9342FBD3B14200D000218A426D
:104420003FD004A803216268D207FCD0A268491ECD
:1044300004C0F8D2684603216268D207FCD0A268A3
:10444000491E04C0F8D214A803216268D207FCD028
:10445000A268491E04C0F8D20AA801216268D207E6
:10446000FCD0A268491E04C0F8D2B4480121626899
:10447000D207FCD0A268491E04C0F8D2B04801217E
:104480006268D207FCD0A268491E04C0F8D2AD48C9
:1044900003216268D207FCD0A268491E04C0F8D28A
:1044A00043E1049A05994A400699079B59408A427C
:1044B00044D00999002008600999486004A80321A4
:1044C0006268D207FCD0A268491E04C0F8D26846D0
:1044D00003216268D207FCD0A268491E04C0F8D24A
:1044E00014A803216268D207FCD0A268491E04C048
:1044F000F8D20AA801216268D207FCD0A268491E3E
:1045000004C0F8D28D4801216268D207FCD0A268AD
:10451000491E04C0F8D28A4801216268D207FCD043
:10452000A268491E04C0F8D2864803216268D207F7
:10453000FCD0A268491E04C0F8D2F6E06168C90741
:10454000FCD0A1688A06920E002116460B46002A6E
:1045500003D9491C5B1C9342FBD3B14200D000211C
:104560008A423FD004A803216268D207FCD0A26827
:10457000491E04C0F8D2684603216268D207FCD005
:10458000A268491E04C0F8D214A803216268D207A9
:10459000FCD0A268491E04C0F8D20AA901206268B2
:1045A000D207FCD0A268401E04C1F8D263480121A2
:1045B0006268D207FCD0A268491E04C0F8D26048E5
:1045C00001216268D207FCD0A268491E04C0F8D25B
:1045D0005C4803216268D207FCD0A268491E04C06F
:1045E000F8D2A2E0049A05994A400699079B5940DF
:1045F0008A4256D10A9A09990A6009990B9A091DAB
:1046000004C109910C99491E0C9101D3FFF7F6FAE8
:104610004E4804A903224368DB07FCD08368521E7E
:1046200008C1F8D2694603224368DB07FCD08368DF
:10463000521E08C1F8D214A903224368DB07FCD03C
:104640008368521E08C1F8D20AA901224368DB0719
:10465000FCD08368521E08C1F8D238490122436851
:10466000DB07FCD08368521E08C1F8D2344901220E
:104670004368DB07FCD08368521E08C1F8D2314979
:1046800003224368DB07FCD08368521E08C1F8D2BE
:104690002F4841680222114341600560002019B093
:1046A000F0BD0999002008600999486004A8032119
:1046B0006268D207FCD0A268491E04C0F8D26846DE
:1046C00003216268D207FCD0A268491E04C0F8D258
:1046D00014A803216268D207FCD0A268491E04C056
:1046E000F8D20AA801216268D207FCD0A268491E4C
:1046F00004C0F8D2114801216268D207FCD0A26838
:10470000491E04C0F8D20E4801216268D207FCD0CD
:10471000A268491E04C0F8D20A4803216268D20781
:10472000FCD0A268491E04C0F8D2094841680222A0
:10473000114341600560012019B0F0BD5000000830
:1047400050000010500000185000001450003800B5
:10475000500072004168002901D0490701D00120B2
:104760007047F0B5FE4997B00D680A6802231A43F6
:104770000A6005273F077968A42291438C4611916E
:10478000017D8022090909010175002908D004234F
:10479000842420290BD0402905D0602914D10DE0B4
:1047A000119B134308E0634613439C460CE06646A6
:1047B0001E43119BB4462343119305E066462643EE
:1047C000119CB4461C431194E64B89060AD5C16876
:1047D0001C1F40C9266010C91C6040398C6B0494B2
:1047E000C96B05914168046812940469C90803946F
:1047F0004C1E0E94002900D1EAE3DB494A68D20737
:10480000FCD08A6853075B0F00221E461446002B1B
:1048100003D9521C641C9C42FBD3B24200D000223C
:1048200093423FD008A803224B68DB07FCD08B687B
:10483000521E08C0F8D204A803224B68DB07FCD044
:104840008B68521E08C0F8D214A801224B68DB07FF
:10485000FCD08B68521E08C0F8D20CA801224B680D
:10486000DB07FCD08B68521E08C0F8D2BF4801227B
:104870004B68DB07FCD08B68521E08C0F8D2BC48DE
:1048800001224B68DB07FCD08B68521E08C0F8D2AF
:10489000B84801224B68DB07FCD08B68521E08C069
:1048A000F8D226E24A68D207FCD08A68B14ED70710
:1048B000FF0F14AA01234C68E407FCD08C685B1E30
:1048C00010C2F8D2BA0014ACA358B350012257401A
:1048D000BA00A358B3504A68D207FCD08A6853077D
:1048E0005B0F00221E461446002B03D9521C641C89
:1048F0009C42FBD3B24200D0002293423FD008A892
:1049000003224B68DB07FCD08B68521E08C0F8D22C
:1049100004A803224B68DB07FCD08B68521E08C03A
:10492000F8D214A801224B68DB07FCD08B68521E1A
:1049300008C0F8D20CA801224B68DB07FCD08B68BA
:10494000521E08C0F8D2894801224B68DB07FCD010
:104950008B68521E08C0F8D2854801224B68DB07DD
:10496000FCD08B68521E08C0F8D2824801224B68E6
:10497000DB07FCD08B68521E08C0F8D2B9E14A6848
:10498000D207FCD00F4689687A4BCA07D20F8168DC
:1049900094000E591E51012462409200895899508A
:1049A0003C466168C907FCD0A1684A07520F002144
:1049B00016460B46002A03D9491C5B1C9342FBD3C5
:1049C000B14200D000218A423FD008A8032162688A
:1049D000D207FCD0A268491E04C0F8D204A8032163
:1049E0006268D207FCD0A268491E04C0F8D214A89D
:1049F00001216268D207FCD0A268491E04C0F8D227
:104A00000CA801216268D207FCD0A268491E04C02C
:104A1000F8D2564801216268D207FCD0A268491E2C
:104A200004C0F8D2524801216268D207FCD0A268C3
:104A3000491E04C0F8D24F4801216268D207FCD059
:104A4000A268491E04C0F8D253E105216246090755
:104A50004A60129A464912680A601299464A091D2C
:104A600008C91360129140398A6B0892C96B099189
:104A70006168C907FCD0A1684A07520F0021164699
:104A80000B46002A03D9491C5B1C9342FBD3B1425D
:104A900000D000218A423FD008A803216268D207D3
:104AA000FCD0A268491E04C0F8D204A803216268A1
:104AB000D207FCD0A268491E04C0F8D214A8012174
:104AC0006268D207FCD0A268491E04C0F8D20CA8C4
:104AD00001216268D207FCD0A268491E04C0F8D246
:104AE000224801216268D207FCD0A268491E04C096
:104AF000F8D21F4801216268D207FCD0A268491E83
:104B000004C0F8D21B4801216268D207FCD0A26819
:104B1000491E04C0F8D2DFE3052109070A68802393
:104B20001A430A60154B196A4900FCD46168C90729
:104B3000FCD0A16827464A07520F002116460C46B2
:104B4000002A03D9491C641C9442FBD3B14200D013
:104B500000218A4251D008A90322384643680FE059
:104B6000500072005000000C500038005000000847
:104B70005000001050000018500000145000740045
:104B8000DB07EBD08368521E08C1E7D204A90322D9
:104B90004368DB07FCD08368521E08C1F8D214A911
:104BA00001224368DB07FCD08368521E08C1F8D29B
:104BB0000CA901224368DB07FCD08368521E08C1A0
:104BC000F8D2FE4901224368DB07FCD08368521EFD
:104BD00008C1F8D2FA4901224368DB07FCD0836898
:104BE000521E08C1F8D2F74901224368DB07FCD006
:104BF0008368521E08C1F8D26EE3F1490A680C922C
:104C00000A1D14680D949606119C74600C9C0C602F
:104C10000D991160017D202902D060290BD014E08C
:104C20000C9906910D990791E449049A0A60059A36
:104C3000091D0A6009E00899069109990791DF4961
:104C4000049A0A60059A091D0A6039464A68D20723
:104C5000FCD08A685407640F002227461646002CB1
:104C600003D9521C761CA642FBD3BA4200D00022C4
:104C700094423FD008A803224B68DB07FCD08B6826
:104C8000521E08C0F8D204A803224B68DB07FCD0F0
:104C90008B68521E08C0F8D214A801224B68DB07AB
:104CA000FCD08B68521E08C0F8D20CA801224B68B9
:104CB000DB07FCD08B68521E08C0F8D2BF48012227
:104CC0004B68DB07FCD08B68521E08C0F8D2BC488A
:104CD00001224B68DB07FCD08B68521E08C0F8D25B
:104CE000B84801224B68DB07FCD08B68521E08C015
:104CF000F8D2F1E24A68D207FCD08A68B14FD207F5
:104D0000D20F029214AA01244E68F607FCD08E68D6
:104D1000641E40C2F8D2029A940014AA16593E5159
:104D2000029C01267440A40012593A514A68D207E5
:104D3000FCD08A685407640F002227461646002CD0
:104D400003D9521C761CA642FBD3BA4200D00022E3
:104D500094423FD008A803224B68DB07FCD08B6845
:104D6000521E08C0F8D204A803224B68DB07FCD00F
:104D70008B68521E08C0F8D214A801224B68DB07CA
:104D8000FCD08B68521E08C0F8D20CA801224B68D8
:104D9000DB07FCD08B68521E08C0F8D2874801227E
:104DA0004B68DB07FCD08B68521E08C0F8D28448E1
:104DB00001224B68DB07FCD08B68521E08C0F8D27A
:104DC000804801224B68DB07FCD08B68521E08C06C
:104DD000F8D281E24A68D207FCD07B4989688768AB
:104DE000CA07D20F96007749BC598C510124624002
:104DF0009200BC588C5074494A68D207FCD00F46C8
:104E000089684A07520F002116460C46002A03D92A
:104E1000491C641C9442FBD3B14200D000218A4259
:104E200040D008A9032238464368DB07FCD08368DA
:104E3000521E08C1F8D204A903224368DB07FCD044
:104E40008368521E08C1F8D214A901224368DB0707
:104E5000FCD08368521E08C1F8D20CA90122436815
:104E6000DB07FCD08368521E08C1F8D253490122E7
:104E70004368DB07FCD08368521E08C1F8D2504952
:104E800001224368DB07FCD08368521E08C1F8D2B8
:104E90004C4901224368DB07FCD08368521E08C1DD
:104EA000F8D219E2052109070A68802422430A6022
:104EB000196A4900FCD439464A68D207FCD089688F
:104EC0003E468A06920E002114460B46002A03D95C
:104ED000491C5B1C9342FBD3A14200D000218A42B3
:104EE00040D008A9032230464368DB07FCD0836822
:104EF000521E08C1F8D204A903224368DB07FCD084
:104F00008368521E08C1F8D214A901224368DB0746
:104F1000FCD08368521E08C1F8D20CA90122436854
:104F2000DB07FCD08368521E08C1F8D22349012256
:104F30004368DB07FCD08368521E08C1F8D22049C1
:104F400001224368DB07FCD08368521E08C1F8D2F7
:104F50001C4901224368DB07FCD08368521E08C14C
:104F6000F8D2B9E1164909680A91184909680B9104
:104F7000017D202901D0602909D106990491079962
:104F800005910E49069A0A60079A091D0A60334680
:104F90005968C907FCD099688A06920E0021164606
:104FA0000C46002A03D9491C641C9442FBD3B1422D
:104FB00000D000218A424BD008A80AE05000000827
:104FC000500000105000001850003800500000142D
:104FD000F5E003215A68D207FCD09A68491E04C044
:104FE000F8D204A803215A68D207FCD09A68491E57
:104FF00004C0F8D214A801215A68D207FCD09A68DC
:10500000491E04C0F8D20CA801215A68D207FCD06E
:105010009A68491E04C0F8D2B44801215A68D207E0
:10502000FCD09A68491E04C0F8D2B14801215A68E0
:10503000D207FCD09A68491E04C0F8D2AD480121BD
:105040005A68D207FCD09A68491E04C0F8D243E1DE
:10505000089A09994A400A990B9C61408A4244D0B7
:105060000399002008600399486008A803215A6842
:10507000D207FCD09A68491E04C0F8D204A80321C4
:105080005A68D207FCD09A68491E04C0F8D214A806
:1050900001215A68D207FCD09A68491E04C0F8D290
:1050A0000CA801215A68D207FCD09A68491E04C096
:1050B000F8D28E4801215A68D207FCD09A68491E5E
:1050C00004C0F8D28A4801215A68D207FCD09A68F5
:1050D000491E04C0F8D2874801215A68D207FCD083
:1050E0009A68491E04C0F8D2F6E05968C907FCD096
:1050F00099688A06920E002116460C46002A03D9AA
:10510000491C641C9442FBD3B14200D000218A4266
:105110003FD008A803215A68D207FCD09A68491EDC
:1051200004C0F8D204A803215A68D207FCD09A68B8
:10513000491E04C0F8D214A801215A68D207FCD035
:105140009A68491E04C0F8D20CA801215A68D207F7
:10515000FCD09A68491E04C0F8D2644801215A68FC
:10516000D207FCD09A68491E04C0F8D260480121D9
:105170005A68D207FCD09A68491E04C0F8D25D482C
:1051800001215A68D207FCD09A68491E04C0F8D29F
:10519000A2E0089A09994A400A990B9C61408A4208
:1051A00056D10C9A03990A6003990D9A091D04C1FE
:1051B00003910E99491E0E9101D3FFF71EFB4E4835
:1051C00008A903224368DB07FCD08368521E08C18C
:1051D000F8D204A903224368DB07FCD08368521E7F
:1051E00008C1F8D214A901224368DB07FCD0836808
:1051F000521E08C1F8D20CA901224368DB07FCD07B
:105200008368521E08C1F8D2384901224368DB077F
:10521000FCD08368521E08C1F8D235490122436888
:10522000DB07FCD08368521E08C1F8D23149012245
:105230004368DB07FCD08368521E08C1F8D22F48B0
:1052400041680222114341600560002017B0F0BDA3
:105250000399002008600399486008A803215A6850
:10526000D207FCD09A68491E04C0F8D204A80321D2
:105270005A68D207FCD09A68491E04C0F8D214A814
:1052800001215A68D207FCD09A68491E04C0F8D29E
:105290000CA801215A68D207FCD09A68491E04C0A4
:1052A000F8D2124801215A68D207FCD09A68491EE8
:1052B00004C0F8D20E4801215A68D207FCD09A687F
:1052C000491E04C0F8D20B4801215A68D207FCD00D
:1052D0009A68491E04C0F8D2084841680222114366
:1052E00041600560012017B0F0BD000050000008CB
:1052F000500000105000001850003800500072009C
:1053000070B5A74900200870A6490870A649087022
:10531000A64901240C70A6490880A6490880A64920
:10532000AA4D0880A5490880A5490870A5490870BC
:10533000A5490C70A64928700870A6490870A649AE
:105340000C70A6490C70A6490C70A6490870A649B5
:10535000FF200880A549A64E0A6800208100535806
:1053600073508B1889195B68801C4B604028F5D3FB
:10537000307A002805D0307B012802D001F041FCB2
:105380002C709C489C49006B087070BDF8B50646AF
:1053900084480F460078012814D0984800780028E7
:1053A00010D0884801788048012902D1017800296D
:1053B0006CD00078012806D17F4800798009022846
:1053C00001D00320F8BD8E4800788A4D01240028C2
:1053D00004D07E480078012807D008E071480470A6
:1053E0008848696B01600120F8BD01F0E8FB78484E
:1053F0000078012801D101F00CFD774800780528DC
:1054000074D008DC012810D0022827D0032856D0F9
:10541000042808D16FE00A2815D0162837D018289C
:105420007ED01F287DD00120F8BD01F095F96B4991
:105430000A78002A03D1684A0A2313700C700028E6
:10544000F2D0584908E001F0F0F964490A78002ADE
:10545000EAD1614B02221A700C70F8BDF0071626D3
:10546000002844D0002F01D0F80740D000F072FF90
:105470005A490A78002A02D1574A16700C7001283E
:1054800004D1604801682143016069637CE0F00752
:10549000032600282BD0B80729D500F0F5FF4F4987
:1054A0000A78002A02D14C4A16700C7001286BD180
:1054B00054490222086810430860686364E070077A
:1054C0000426002813DA01F0AEF844490A78002ACD
:1054D00002D1414A16700C70012855D14949012268
:1054E000086812041043086068634DE04EE03A48D3
:1054F00006703A4842E0B00718260028F7DA002F75
:1055000001D0F805F3D501F026F834490A78002ACD
:1055100002D1314A16700C70012835D1394901E0A9
:1055200007E01FE0FF22086801321043086068634B
:105530002AE0B0071F260028D9DAB805D7D501F030
:1055400041F826490A78002A02D1234A16700C70C5
:10555000012819D12B490122086852021043086022
:10556000686311E030070525002809DA01F0AAF880
:105570001A480178002907D117490D70047003E01B
:1055800015480570154804700020F8BD01F05CF95D
:105590000028FAD0034900220C700F490A70F8BDA8
:1055A0002000007E2000008A2000007F2000008074
:1055B000200000822000008420000798200008A41A
:1055C0002000008B200000882000008C2000008933
:1055D000200000862000008D2000008E2000008F1B
:1055E0002000009020000087200000920000AA18F0
:1055F000200006982000075820000091200009D1C3
:10560000200009D0200000689049132810D02328DA
:105610000ED001220A708E4B0A21CA00D218203AFD
:10562000127E824206D1C800C0184038C06B0047C5
:105630000022EFE7491EF0D17047F8B585480078A1
:10564000012803D101F098FB01F0E3FB82480078C8
:10565000002809D18148018881480078FFF796FE2B
:10566000032801D0012835D17E480078012801D1D6
:1056700001F0CFFB7C4E307800282BD07B4F0024EC
:1056800038797B4D800902281DD0F87801F06FFA37
:10569000FF2833D0774980004018827A6B48132A5C
:1056A00035D0232A33D001210170694B0A20C10073
:1056B000C9182039097E91422BD1C000C01840384A
:1056C000C06B804727E06C480078012803D001F0C8
:1056D000E1FA0020F8BD01F0F5FA03280AD002280B
:1056E0000AD02878012834D001F0DCFA01F0D2FA8F
:1056F0001620F8BD4920F8BD5020F8BD3879800942
:1057000009D1F8780022832101F0D7FB03E004706F
:10571000CBE7401ECBD134705848048058480078FD
:10572000012801D101F04BFA2878012811D0042872
:1057300012D054480188012911D0022912D003291E
:1057400013D0042914D0052915D0062916D000201D
:10575000F8BD2C701120F8BD2C701520F8BD048008
:105760003020F8BD04803120F8BD04801820F8BD39
:1057700004802020F8BD04806120F8BD04806220F0
:10578000F8BD38B540A00088694608803F480078D9
:10579000085C01F0D7F93749800040183C49007A8D
:1057A000087000F042FD3B480078012808D0FF2433
:1057B000394D240101F02DFB2888A042FAD138BDD3
:1057C00001F027FB38BD38B534A000886946088051
:1057D0002E480078085C01F0B5F926498000401891
:1057E0002B49007A087000F0CFFC012802D12C4927
:1057F0000920087027480078012808D0FF24264D8A
:10580000240101F006FB2888A042FAD138BD01F03E
:1058100000FB38BD70B5F02001F094F91549800007
:1058200040181B49007A087000F061FD19480078A3
:10583000012808D0FF24184D240101F0EAFA288835
:10584000A042FAD170BD01F0E4FA70BD20000075ED
:105850000000AB24200009D12000008A2000007045
:105860002000006E200000862000007F20000798A6
:105870002000008D20000698200000882000008273
:1058800020000089200000922321000020000458FD
:1058900020000090200000742000008413110000FC
:1058A0002000008EF8B5FE4800680090FD480078A2
:1058B000002848D0FC480078002846D0FB480078F3
:1058C000002842D0FA4D6A4669782878490089183C
:1058D000405C01F037F9C0B2FF2836D08100F548AE
:1058E0000818417A002930D0F34E007AA9787171F6
:1058F000EA78511E002917DD0123EC1C711DD20727
:10590000DB07D21803D0641C2278491C0A70EA789D
:105910006378521E521007D0A41C27784B70891C44
:1059200063780F70521EF7D1EA78511E03D46B18BA
:105930001B7971188B71521C012101F0BEFA01F024
:1059400068FA0020F8BDFF20F8BD0120F8BD10B5B1
:10595000D34A84B091685068D2680090D1480292CE
:1059600001910078002827D0CF480078002826D061
:10597000CE480078002822D0D04C217860784A00A8
:1059800089186A468918405C01F0DCF8C0B2FF282B
:1059900015D08100C7480818417A00290FD0C64A9F
:1059A000007AA17851710122022101F086FA01F0FA
:1059B00030FA002004B010BDFF2004B010BD01205B
:1059C00004B010BD70B50546B7480C4600781646C1
:1059D00000281DD0B5480078002819D0B1480078BB
:1059E000002815D0412001F0ADF8FF2810D081002B
:1059F000B0480818417A00290AD0007A102D09D041
:105A0000522D07D0E9B2C0B2002201F056FA1AE0D6
:105A1000012070BDB2B2E9B2C0B201F04EFA002E60
:105A200011D0641EA649F00703D0641C2078491CDD
:105A30000870720807D060784870A41C891C207810
:105A40000870521EF7D1502D02D19E4908200870CF
:105A500001F0DFF9002070BDF8B5934909780029FD
:105A60003BD092490978002937D08E49097800291E
:105A700033D095490024087000282CD050251320DD
:105A800001F060F80746112001F05CF80646FF2F90
:105A90000DD08848B9000818417A002907D0007A4B
:105AA0000022294601F009FA01F0B3F90124FF2E82
:105AB0000DD08048B1000818417A002907D0007A3B
:105AC0000022294601F0F9F901F0A3F9641C002C29
:105AD00003D00020F8BD5125D1E70120F8BD10B555
